:020000041000EA
:1000000000B5324B212058609868022188439860DF
:10001000D860186158612E4B002199600221596106
:100020000121F02299502B49196001219960352056
:1000300000F044F80222904214D00621196600F024
:1000400034F8196E01211966002018661A6600F04E
:100050002CF8196E196E196E052000F02FF8012189
:100060000842F9D1002199601B49196000215960AB
:100070001A491B48016001219960EB211966A021F2
:10008000196600F012F800219960164914480160C1
:100090000121996001BC002800D000471248134993
:1000A000086003C880F30888084703B5996A0420EC
:1000B0000142FBD001200142F8D103BD02B5186610
:1000C0001866FFF7F2FF186E186E02BD00000240BE
:1000D000000000180000070000035F00212200005C
:1000E000F4000018222000A00001001008ED00E03C
:1000F00000000000000000000000000074B24E7A12
:1001000000200420F7010010C3010010C5010010F9
:10011000C1010010C1010010C1010010C101001097
:10012000C1010010C1010010C1010010C701001081
:10013000C1010010C1010010C9010010CB01001065
:10014000CD010010CD010010CD010010CD01001037
:10015000CD010010CD010010CD010010CD01001027
:10016000CD010010CD010010CD010010CD01001017
:10017000CD010010CD010010CD010010CD01001007
:10018000CD010010CD010010CD010010CD010010F7
:10019000CD010010CD010010CD010010CD010010E7
:1001A000CD010010CD010010CD010010CD010010D7
:1001B000CD010010CD010010CD010010CD010010C7
:1001C00000BE00BE00BE00BE00BE00BE00F04BF888
:1001D000103800BEF2EB8871642700107C270010F5
:1001E0003402001090A31AE700202149086006C8D5
:1001F00081F3088810471F48006800282FD10DA4FC
:100200000ECC002902D000F012F8F9E71A491B4A77
:10021000002000E001C19142FCD1194988471949E9
:1002200088471949884700BEFDE701C901C29A42C3
:10023000FBD370477C270010C00000204C0A002030
:1002400008310010000004200000042008310010D4
:1002500000100420001004200000000070470B482C
:1002600001F04AFB0047EFF30580C0B27047000081
:1002700008ED00E0000000D04C0A0020140D002022
:100280009D1000105D030010BD11001057560000B6
:1002900006005250ABB360532427001006005250A2
:1002A000861C030234270010060052505422A29DDF
:1002B0003C27001005005250DE65F468083100103C
:1002C000F8B5C0460448054B10B5834203D0044B33
:1002D000002B00D0984710BD4C0A00204C0A00208B
:1002E0000000000006480749091A8B10C90FC918F9
:1002F00010B5491003D0044B002B00D0984710BD17
:100300004C0A00204C0A00200000000010B5074CE9
:100310002378002B09D1FFF7D5FF054B002B02D026
:10032000044800E000BF0123237010BD4C0A0020E8
:1003300000000000D8260010054B10B5002B03D09C
:100340000449054800E000BFFFF7CCFF10BDC046E0
:1003500000000000500A0020D826001070B580254B
:10036000D024AD042E001920240600F00BF865629D
:10037000FA20666100F0D8FAFA20A56100F0D4FAFC
:10038000F6E7C0460123D0228340120693629361B0
:10039000094A83009446402263441968C0004A40D9
:1003A000C02111408022520113431960034B9C4627
:1003B000052360444360704704C001400040014091
:1003C000F8B5CE464746914680B5EFF3108772B632
:1003D000124E3368002BFCD0BFF35F8FCB08C55C97
:1003E0000724C218280001230C409446E0401A005C
:1003F0000240904603420DD1A34062462B43137046
:10040000BFF35F8F4346336087F310880CBC904680
:100410009946F8BD484600F0D3FEC0462C0100D0F6
:100420000021044B044ABFF35F8F02C39342FAD109
:100430007047C046000100D0800100D0044A107807
:10044000431CDBB2172B00D9102313707047C04632
:1004500080010020024B18688007C00F7047C0461B
:1004600000C0064083680B4810B58446614462446E
:10047000090112019A18591854684B6801209C42CE
:1004800001D802D00020C0B210BD12680B689A4299
:10049000F9D8F7E7FFFFFF0F40BF002000217047AA
:1004A000F8B5DE4657464E464546E0B51F000DAB53
:1004B0001B7805009B460C9B1600002B45D0414A3B
:1004C0000C9B9446DBB2AA689A460C9B2C6863444A
:1004D00094461B010A9A63449A600B9A1E60DA6084
:1004E0000C9A5F6094460C9B00225B006344033BC4
:1004F0009846236843449A705A701A70637B9946F1
:10050000002B43D052461900A068636898472268C0
:1005100000282BD04B465B004B44033BD1188C4644
:100520004146484651188870D35C002B46D153464B
:10053000624613704B460C986373814528D03CBCCF
:1005400090469946A246AB46F8BD0268947B002CC3
:1005500032D0116863008C461B196344033B5B78FF
:100560009373002B00D1D3730C94A8E74346D118A2
:100570004B4650465B004B44033BD31898704046B3
:10058000125C002A00D05A704B460B7053466373BE
:1005900032003B00287D00F0E3FA061E06D05B46E1
:1005A000002B03D15146286800F03AFD0E9B002B2A
:1005B00006D00C981E70C2E70020C0E74B70B6E76B
:1005C0000C98BCE7FFFFFF0FF0B5DE464E465746DE
:1005D00045460023E0B58DB00A936B4B8200D3589B
:1005E0000B90994600239B464B46079300F058FA20
:1005F000079C06000F006268EFF3108572B613685F
:10060000002BFCD022000794BFF35F8F2468637B2C
:100610009946002B67D092685C4B90464B441B0177
:10062000984443461A685B6810001900801BB94162
:1006300000295FDD0B9800F093FA0023002698460E
:1006400000279A46079C6368BFF35F8F5A461A607B
:1006500085F310885346002B08D10028C6D10DB071
:100660003CBC90469946A246AB46F0BD0A9B41462B
:1006700018024B461843D047089009916268EFF37F
:10068000108572B61368002BFCD00794BFF35F8F00
:100690000899099A002A48DB114303D0079B1B697C
:1006A000002B5DD1079B1B68DA7B002A07D0510025
:1006B0008A1819688C4649466244033A51704A4682
:1006C000DA734B46079A013BD168CA5C0132CA54BF
:1006D0005B46079A13615368BFF35F8F5A461A60EF
:1006E00085F3108882E700230026984600279A4663
:1006F0000020A7E7002901D100289BD1012120007B
:1007000000F0F0FB43461E685F689B68079A9A46B4
:100710004346DB689846D3684B44013B1B780A93F9
:100720001B020343136100208CE72369002BB9D01F
:1007300033003C005B1A94411A002300A74219D8E9
:100740009F421BD0594604910121039149460291D1
:1007500041460191514607980091FFF7A1FEB7E786
:1007600000F09EF9089A099B06000F0092197B4140
:100770009942E5D901225242D317E3E79642E1D9E3
:1007800001225242D317DDE7E80A0020FFFFFF0FE6
:10079000F8B557464E46DE4645469146E0B504005C
:1007A0009A464268EFF3108872B61368002BFCD0AB
:1007B000BFF35F8F2668B57B002D4AD06F0033688A
:1007C0007F19033FDB195B78B373002B00D1F37300
:1007D000354B0022E918A36809019C464B46614449
:1007E0000B6053464B60314BCA608B603368DB193A
:1007F0009A705A701A70737B9B46002B44D02A0063
:100800001900B06873689847326800282FD05B469B
:1008100058465B005B44D719033BB870D118D35CD2
:10082000002B3ED15B460D7073735D452DD00026C5
:10083000E36862685B19013B1B78BFF35F8F00219F
:10084000116088F310880020002E0AD11802284376
:1008500007E06368BFF35F8F1D6088F31088012095
:1008600040423CBC90469946A246AB46F8BD5B462A
:100870005B005B44033BD3189D70D119D25D002A05
:1008800000D05A705B460B7075734A465346207D04
:1008900000F066F9061ECAD02900206800F0C0FBEF
:1008A000C6E77B70BEE7C046FFFFFF0F990400104C
:1008B00070B5184C2368002B00D070BD032000F0E9
:1008C000E3F8032000F0AEF91349032000F002F929
:1008D000182001F037F90500FFF7B0FD0F4B2A0093
:1008E0009C46604480000E496860102000F004FAC5
:1008F00010212860102001F029F90121A8601020A2
:1009000001F024F903232B75064BE860DD602560B8
:10091000D3E7C046D40A0020C905001040000034C7
:1009200065040010E80A0020F8B5040000F0B8F8EB
:10093000FA2206000F00200000230021920001F09F
:100940009FF88019794104000D008F422FD82CD0D8
:1009500006267642F71736196F41AF422ED9002688
:10096000002700F09DF832003B00121A8B41002B4B
:1009700007DC04D02900200000F09CF8F8BD002A14
:10098000F8D0114B320018683B00FFF701FF002838
:10099000F0DB38000D4A536A984204D8916A8E42BF
:1009A000E8D99842E6D120BFF5E78642D0D90124A4
:1009B0006442E51707267642F717D2E7AF42D0D157
:1009C000A642CCD8CDE7C046D40A0020004005405E
:1009D000F0B5D6464F464646C0B5EFF305833F22F5
:1009E000134018001038EFF3108C72B6204D2A68AF
:1009F000002AFCD0BFF35F8F0122110081401D4C03
:100A0000884661631C4917000E788A463100C14050
:100A10000F400A4215D019498200646A51588C422D
:100A200019D3174BD25843469E4353461E70BFF30B
:100A30005F8F00232B608CF31088002A06D090472C
:100A400004E0BFF35F8F2F608CF310881CBC9046CE
:100A50009946A246F0BD0B4A9B00904643441A6853
:100A60001A60BFF35F8F00232B608CF31088EDE7D3
:100A7000280100D0004005400A0B0020F80A0020A1
:100A80009C0A0020D03F054010B50100024A0348EF
:100A9000FFF796FC10BDC046D8260010080B0020BA
:100AA000034B596A0A00986A596A8A42FAD1704718
:100AB00000400540064A536A9942FCD807D1044BCE
:100AC00002E05A6A914202D19A6A8242F9D370478F
:100AD0000040054070B504000D00EFF3108672B6BB
:100AE0001A4A1368002BFCD0BFF35F8F002D1BD078
:100AF000200000F04BFD164981420AD0200000F092
:100B00004DFD0121200000F02FFD0123A340114ADB
:100B10001360114BA400E550BFF35F8F00220B4B15
:100B20001A6086F3108870BD0B4BA200D5500122CD
:100B3000A2400A4920000B7893430B70044900F04F
:100B400057FD0021200000F00FFDE5E7280100D04F
:100B5000D1090010386005409C0A00200A0B0020D3
:100B6000F0B5CE46474680B52A4C616A0D00A66AAC
:100B7000616AA942FAD18B4207D804D001200CBC8B
:100B800090469946F0BDB242F8D9EFF3108872B69C
:100B9000214C21680029FCD0BFF35F8F01258540DF
:100BA0001C4C1E4E6563E9B28C463178894661461D
:100BB0004F4639433170011D89000A5118498000A0
:100BC0004350216A002029420CD02000616A0C00A9
:100BD000876A416AA142FAD18B4202D80AD1BA424D
:100BE00008D90020BFF35F8F00220B4B1A6088F3F7
:100BF0001088C4E7074B4F461D625D6363469F4301
:100C000001203770BFF35F8F0022034B1A6088F317
:100C10001088B4E700400540280100D00A0B0020EE
:100C2000F80A002010B5EFF3108472B60A490B6879
:100C3000002BFCD0BFF35F8F01238340074A084895
:100C4000136202789A430270BFF35F8F00230B6038
:100C500084F3108810BDC046280100D00040054034
:100C60000A0B0020024B9C466144890001607047DA
:100C70004000003410B50400FFF7E0FB0100200045
:100C8000FFF7F0FFFF232371BFF35F8F10BDC04656
:100C900070B505000E001400002924D0002A24D0CD
:100CA00080686B689847296800280ED063001B197C
:100CB0007200033B9219CB18033A9E7088188A5C25
:100CC000002A14D1047030000EE073009B196200FA
:100CD000033B1219CB18033A9C7088188A5C002ACF
:100CE00000D05A700670200070BD0800FCE75A70F2
:100CF00004703000F8E7C046F0B5C64605000F00A6
:100D000000B510210120160000F020FFEBB2040016
:100D10000373032147602800984600F017FF002363
:100D200063730133A3734346FF21E373FE23206003
:100D3000A66029402B4206D0421CFD3B01331370B4
:100D400003328B42FAD34B00591800234018033862
:100D50004370200004BC9046F0BDC046F8B5CE46B6
:100D6000474606000C0080B5002907D04D000368F7
:100D70006D18033D5A195778002F04D120000CBC80
:100D800090469946F8BD7900C9190339884643440D
:100D90005978894600215970517073683A002100D2
:100DA000806898473368002814D042469A18947097
:100DB00059195B5D002B00D053700F702700494616
:100DC0003000FFF7CBFF390002003000FFF760FF73
:100DD0000400D3E7424641465D19AF709A185B5C48
:100DE000002B00D06B701470E9E7C046F0B5574691
:100DF0004546DE464E46E0B50D006B0001685B19C6
:100E0000DF1E0400C85D83B00192CA1900284CD0CF
:100E100043001B18033BCB185E78B446002E16D156
:100E2000019E002E3ED1E67B002E04D073009B195C
:100E3000CB18033B5D70E57300282FD1002353705E
:100E400003B03CBC90469946A246AB46F0BD72004A
:100E50006244033A89184A78904600224A709146C3
:100E60005A70010032002000FFF712FF434682460D
:100E7000002B07D05B0021684344033BCB185A7812
:100E8000002A16D1424651462000FFF701FF216893
:100E9000019BCA19002BC6D00028CFD043001B18D5
:100EA000033BCB1800219970C8E7019B002BC5D1EB
:100EB000B9E7500080180338091848788346484637
:100EC0004870587041462000FFF7E2FE59468046C0
:100ED0002000FFF743FF414602002000FFF7D8FE45
:100EE0008046CFE7F0B54E464546DE465746E0B56C
:100EF000467B040075000068AD19033D83B0019185
:100F0000415D421900294ED04B005B18033BC318CA
:100F10005F78BC46002F18D1019D002D40D1E57BA4
:100F2000002D04D06B005B19C318033B5E70E673A1
:100F3000002931D1002330005370617303B03CBCF1
:100F400090469946A246AB46F0BD7A006244033A09
:100F50008018427893460022427091465A702000D1
:100F60003A00FFF795FE5B468046002B07D05B00FA
:100F700021685B44033BCB185A78002A17D15A46A4
:100F800041462000FFF784FE019B010020684219C2
:100F9000002BC4D00029CDD04B005B18033BC318F5
:100FA00000209870C6E7019B002BC3D1B7E7500023
:100FB00080180338091848788246484648705870A7
:100FC00059462000FFF764FE53468346002B07D0A6
:100FD0005B0021685344033BCB185A78002A06D1A2
:100FE000594652462000FFF753FE8346C7E750009C
:100FF00080180338091848464F7848705870514691
:101000002000FFF745FE390081462000FFF7A6FECD
:10101000494602002000FFF73BFE8246E0E7C0465B
:1010200070B5040000292CD0437B8B422ED005687C
:1010300048004018033828188278002A21D053002D
:101040009B18033BEA5CEE188A4202D11BE0002A9F
:1010500008D053009B18033BEB185A788A42F6D10C
:1010600042785A7000230022837043702000FFF7FB
:10107000BDFE617B02002000FFF70AFE60730120C5
:1010800000E0002070BD43783370EBE700221900C8
:10109000FFF7ACFE60730120F4E7C0462B4B2C4AEF
:1010A00070B51A602B4A2C4B2C491A6010008B68C3
:1010B0009843FBD12A4C2B4B9C4209D2013B1D1B70
:1010C000AD080135AD002D1908CC9847AC42FBD1D5
:1010D00000F094F8244A204B1A60204A9368DB0100
:1010E0008033FBD14022214B214C9A675A671A6703
:1010F000DA66204B9C420BD2013B1D1BED080135EB
:10110000ED002D1920000834FFF7B4FDAC42F9D1F1
:10111000194C1A4DA168C022280000F029FDA560D5
:10112000FFF77EF900F0A4FBFFF7C2FB144C154B50
:101130009C4209D2013B1D1BAD080135AD002D19A4
:1011400008CC9847A542FBD170BDC04600E00040E6
:10115000BFCDFFFFFE7F3C0000F0004000C000401C
:10116000380A0020480A0020FFFFFF0100F001407C
:10117000300A0020380A002000ED00E000000020C6
:10118000480A00204C0A0020094A03001068002881
:1011900005D00849C3188B4207D213607047064830
:1011A0000449C31810608B42F7D301204042F5E791
:1011B000E00A002000000420140D002000BEFDE71E
:1011C0000FB400B5084883B000F0A8FD049B002BC5
:1011D00007D005A91800019100F06EFB034800F04C
:1011E0009DFD00BEFDE7C046FC2600100C27001048
:1011F00010B50148FFF7E4FF1027001030B50C20B0
:1012000083B000F06BF9FFF725F900280ED09A4B58
:101210009A4A1A605A609A60DA601A615A619A6151
:10122000DA611A62964A5A6203B030BD954CA067E3
:1012300000F05CF90122944B1A60636C012BFCD125
:101240000322924B1A608F4A936B012BFCD1C02270
:101250008F4B92011A608F4B8F491A6010008B6878
:101260009843031EFAD1022401218C4A8C4806338C
:10127000009400F04FF905238A4A01218A4800941E
:1012800000F048F9894B5A68FF2A02D880225200A0
:101290005A608022784C7D4B21691201834D1A607F
:1012A000002905D0606900F055FB01300138FDD1FF
:1012B000E0217E4B02201A681140802252012A430D
:1012C00011601968484003210140116004219A68A7
:1012D0001142FCD08022802192012A430901116031
:1012E000802252005A60724B2361724B5968FF2969
:1012F00000D85A6003226F48634B01211A60020034
:1013000093681942FCD0E02513681D4080235B01DF
:1013100003431D6012684A400321114019600221F5
:10132000644A93681942FCD0802380219B010343C7
:10133000090119608021604B4900516063615F4B76
:101340005A68FF2A00D8596080225D4BE16912017A
:101350005A4D1A60002905D0606900F0FBFA01308F
:101360000138FDD1E02255490B681A4080235B010A
:101370002B431A60802380229B012B4312011A60A9
:1013800080223E4B52004A60E3614E4B5968FF2970
:1013900000D85A6080224C4B216A1201494D1A60D4
:1013A000002905D0606900F0D5FA01300138FDD17F
:1013B000E02244490B681A4080235B012B431A60EA
:1013C000802380229B012B4312011A6080238022FC
:1013D0005B004B60294BD20223623C4B596891421F
:1013E00000D25A6080223A4B616A1201374D1A606E
:1013F000002905D0606900F0ADFA01300138FDD157
:10140000E02232490B681A4080235B012B431A60AB
:10141000802380229B012B4312011A608023DB0270
:101420004B60174B63622B4B5A68FF2A02D880220D
:1014300052005A608022284BA1691201254D1A6082
:10144000002905D0606900F085FA01300138FDD12E
:10145000E02220490B681A4080235B012B431A606D
:10146000802380229B012B4312011A6080235B00A2
:101470004B60114BA361D7E6AC0A0020006CDC0284
:101480001BB70000008000403CB0004030B000407E
:1014900000E0004000F0004000C00040002F68590C
:1014A0000080024000389C1C00C002403080004098
:1014B000001BB7003C800040405973075480004037
:1014C00054B000406080004060B000406C8000403C
:1014D0006CB000404880004048B000408023024A81
:1014E0009B000343D362704700800540AA23064A4D
:1014F0001B0113602F230549D360054B1960536806
:10150000002BFCDA7047C0460040024000B0FA00F1
:1015100000600240F8B51D0006AB1E7801235B4257
:10152000436000230400836001600C20170000F07A
:1015300011FA4101091A8B01591AC90009188901C8
:10154000380000F007FAC021231D89011943212327
:10155000A0600B602268002AFCDA08232D04360301
:101560002E43E6600B60F8BD01238340002904D0C0
:10157000034A1360034A13607047034A1360FBE792
:1015800080E200E000E100E080E100E0024B10308A
:101590009B688000C058704700ED00E070B50D00FA
:1015A000EFF3108672B60F4A1368002BFCD0BFF31E
:1015B0005F8F0D4B10309B6884001B590B4A934280
:1015C00003D09D4201D0FFF713FE074B9B681D51CE
:1015D000BFF35F8FBFF35F8F0022024B1A6086F369
:1015E000108870BD240100D000ED00E0CD01001096
:1015F000F0B5DE4657464E464546E0B50C0083B092
:10160000EFF3108A72B65F4A1368002BFCD0BFF369
:101610005F8F1022914681444A465B4B96009B683F
:101620009D595A4B98469D4205D0A54216D0584F19
:10163000EB1B2F2B14D9544B9B689D51BFF35F8F2D
:10164000BFF35F8F00224F4B1A608AF3108803B0FC
:101650003CBC90469946A246AB46F0BD1D00EAE769
:10166000012383409B465A464A4B1B681A4000920E
:101670005A46494B1A60BFF35F8FFEF7F4FD0190A5
:10168000002803D0814501D0FFF7B2FD01232900D6
:1016900099438B68A34269D00A0007E043001B18F6
:1016A0009B00FB189868A04211D01A000620105623
:1016B0000028F3DA009B002B05D05A46374B1A60FE
:1016C000344B1A60B7E75A46334B1A60B3E706202B
:1016D0001856002822DB4200111889007C18884621
:1016E000A1689960E179D971062161569971A17952
:1016F0007F292BD8A488F91A6405241544440919B4
:10170000E0240905490D2402214399801218244B35
:101710009200BF181A781870BA71CBE701980028A8
:1017200017D1FF3090711F4890801D4ACF1B107851
:10173000BF109871BB00DB1919015B1819025B1807
:1017400019045B185B00DB191370B3E7BD210902B4
:10175000DBE7154A1549D21A083A5002400D0143F9
:101760009980134952080A43DA80A3E706200856F5
:101770000B000028AFDA019A002AEAD10B00454697
:10178000D3E7C046240100D000ED00E0CD010010F9
:101790008401002000E100E080E100E080E200E060
:1017A000090B002000BDFFFFBE01002000F0FFFF7D
:1017B00000F8FFFFF8B5012504000543FEF753FDCF
:1017C000EFF3108672B6244A1368002BFCD0BFF3E7
:1017D0005F8F224F8000E11B89108A00521813018D
:1017E000D2181302D2181304D3181D4A5B005B18D9
:1017F00091680958A9421CD00622BA5693421CD0BF
:101800001222BA56934222D01E22BA56934220D0B8
:101810002A22BA5603219A4210D0124A1178137024
:10182000A171BFF35F8F00220B4B1A6086F3108803
:10183000F8BD92680C491150EFE700214A00521898
:10184000FF219200BA18917108499180E5E70121C2
:10185000F4E70221F2E7C046240100D08401002011
:1018600000ED00E0090B0020CD01001000BDFFFFDE
:10187000F0B500220324FF27802620003D00094BFD
:1018800011009C461040C0008540A14361440B6894
:101890000132AB43350085402B430B60202AECD14D
:1018A000F0BDC04600E400E010B5002800D110BD36
:1018B00000F026FAFBE7C04610B5094A0300146899
:1018C00084B0002C08D0012200910648524203A99E
:1018D000A047012004B010BD00F020FA0020F9E775
:1018E000E40A0020A918001001480421014B184700
:1018F000D001002019190010142310B50100188818
:1019000004331B88984710BD162310B501001888B2
:1019100002331B88984710BDF0B5C64600B50029B4
:1019200016D014230400012598461827890046186C
:101930004346216818883B88984701C4431E984154
:1019400040420540A642F3D1280004BC9046F0BDB9
:101950000125F9E7134A936F9B0813D2106651666D
:10196000002905D0FFE7FFE7FFE7516F106F7047D1
:1019700004B5002801D00020C04300F095FE0021EE
:1019800004BDC046936F5B08FDD3F0B5946ED56E71
:10199000576F166FFFF7E2FF9466D56657671667B5
:1019A000F0BD0000000000D0132370B51D78012D9C
:1019B00010D00BDD2448FFF7A7FF244C0100802244
:1019C000200000F0D5F8022D01D070BD1F4C204A38
:1019D000A264FAE72E001D4C1D4AA3085B421E407C
:1019E0001D422FD0330022602020B1006118801BDF
:1019F0000A604A608A60CA600A614A618A61CA6193
:101A00000A624A628A62CA620A634A638A63CA6372
:101A10000A644A648A64CA640A654A658A65CA6552
:101A20000A664A668A66CA660A674A6740081028D4
:101A300003D18A67CA67A264C7E71E339B00E250DE
:101A4000A264C2E70023CFE7534400000C0B002040
:101A5000551A001007B5604601880A0A0230DF2ACD
:101A6000FAD1C9B2820804D3028840880004104326
:101A700000E00068014A5050039007BD0C0B0020A5
:101A800051434343C9188C46110C83B24B4310B4E5
:101A9000040C614392B280B2504362431C041B0C9D
:101AA000001910BC59411304120CC0185141614473
:101AB00070470000132310B512481C78FFF724FF6D
:101AC0000100012C0AD003DD80220F4800F050F8FD
:101AD0000E48FFF711FF0E4B186010BD0A4C542240
:101AE000200000F045F80B4B6365A365E3652366B2
:101AF0006366A366E36623676367A367E36723629E
:101B0000E361E5E7534600000C0C00204C33000075
:101B10000C0D0020191B001007B5604601880A0A49
:101B20000230DF2AFAD1C9B2820804D30288408881
:101B30000004104300E00068014A5050039007BDC4
:101B40000C0C002010B500F041F910BD10B500F0EC
:101B500003F910BD01480421014B1847E0010020A2
:101B600019190010014B1B6818470000E001002004
:101B7000014B5B6818470000E0010020F8B54746BC
:101B8000CE460D0080B516000700002A20DD4B1E52
:101B900098461A4B002400209946002C2BD043462F
:101BA0001B5D0D3B5A425341DBB22A5D0A2A13D01A
:101BB0000134A642F1DC864203DD311A3B68281865
:101BC0009847AD19013D2B780D3B5A4253413B7468
:101BD0000CBC90469946F8BD002BE9D1A04203DA2F
:101BE000211A3B6828189847484602213B6801346F
:101BF00098472000DDE73B7CD7E7C0466027001010
:101C0000F0B557464546DE464E46D023E0B51B06A6
:101C10001C68374B83B007000D00180001A99046DF
:101C20009A4600F049FD8146002807D1019B9C425D
:101C300004D0504600F048FD012399466B1C03D1A7
:101C4000380000F0B3FB05002A4B1C68002C2FD095
:101C50000A23294E9B4602E0E468002C28D0226823
:101C6000002AF9D03368002B01D0A342F4D1637C61
:101C7000002B2AD02A0039002000FFF77FFF4346BF
:101C8000002BE9D06B465A461A71637C002B20D09A
:101C9000237C002B26D00121236801A898476B469E
:101CA0001B790D3B5A4253412374E468002CD6D172
:101CB0004B46002B12D1681E8541E8B203B03CBCF4
:101CC00090469946A246AB46F0BD290038009047A1
:101CD000D5E70121236801A89847BDE7504600F0E9
:101CE000DBFCE8E70221054823689847D7E7C046B0
:101CF000300A0020D80A0020DC0A002060270010EB
:101D000010B582B06B4604000022D81D012104707A
:101D1000FFF776FF200002B010BDC04670B504008A
:101D200000F044FB0122010005002000FFF768FFDE
:101D3000084B1C68002C06D06368002B05D0984720
:101D4000E468002CF8D1280070BDE468002CF3D1C1
:101D5000F9E7C046D80A002010B5044B0A001B68FA
:101D60000100180000F004F810BDC046F00100208A
:101D700010B5514300F03EF8041E0ED00300083B9E
:101D80005A6803239A43043A242A15D80300132AD5
:101D900005D800221A605A609A60200010BD002108
:101DA0000833016041601B2AF3D98160C160242A95
:101DB00006D003001033ECE70021FFF7D3FEECE779
:101DC0000300016118334161E3E7C04610B5034BDE
:101DD0000100186800F00EF810BDC046F0010020A8
:101DE00010B5034B0100186800F064FB10BDC0463D
:101DF000F0010020F0B557464546DE464E46E0B5B8
:101E00000D000B3583B00700162D22D8102900D9FC
:101E1000BBE000F0B5FA102518230220D14EF318CC
:101E20001A005C68083A944200D1BEE0032362685D
:101E30009A431300E268A168CA6091600122E31826
:101E4000596838000A435A6000F09CFA20000830B4
:101E50009EE007239D4300D597E0A94200D994E076
:101E600000F08EFAF823FF339D4200D8ADE1680AF6
:101E700000D194E0042800D980E138239846A809CD
:101E800080443930C100B74E71180839CC68A1427E
:101E900018D0032362689A431300521B0F2A00DDF7
:101EA00036E1002AC6DA03239C4608E062466368EE
:101EB00093435A1B0F2A00DD2AE1002ABADAE468AC
:101EC000A142F3D1320034690832944200D177E064
:101ED00003236168994389460B00491B0F2900DDE4
:101EE00077E1726132610029A8DA9F4A914500D9F1
:101EF00010E1DA08012391108B40D2007168921929
:101F00000B4391687360E260A1609460CC60012132
:101F100082109140994259D80B4205D10322904337
:101F2000490004300B42FBD003239846C300994676
:101F3000B144CC4682466346DC68A44507D129E11A
:101F4000002A00DB32E1E468A44500D122E14246E8
:101F5000636893435A1B0F2AF2DD01208046611902
:101F600005436560A068E5680836C560A86040461E
:101F7000F160B16010434860CE608E603800E2507E
:101F800000F000FA2000083002E00C2300203B6043
:101F900003B03CBC90469946A246AB46F0BD8021BA
:101FA0003F238900402098466DE7DC680230A34259
:101FB00000D03BE7320034690832944200D087E712
:101FC00001217368821091409942A5D90323B46816
:101FD00062689A439046AA4203D3531B0F2B00DD3D
:101FE00088E023004344614A0193614B93469A463B
:101FF00012681B68EB18013200D139E15D4A944642
:1020000063441B0B1B0300930099380000F0BCF9DC
:1020100003008146013300D1F6E0019B834200D9E1
:10202000F0E051464968009B8C46514663444B6042
:1020300001991A00494500D14FE15B461B68013305
:1020400000D154E14B4601995B1A9A1853465A60E5
:1020500007234A461A40019200D113E108214B465A
:1020600089469B1A99440099434B49449B1A5B1A31
:102070001B051B0D0091380019009B4600F084F9E8
:10208000431C00D14FE14B46C01A03005B44009350
:10209000534652465B6801215B4453604A464846BA
:1020A000B260009A0A434260B44200D123E1424642
:1020B0000F2A00D821E107200C3A824360680140D2
:1020C000052011436160A118486088600F2A00D97B
:1020D00034E14A464C4652685146C96A994201D297
:1020E0005146CB625146096B994200D38EE051466E
:1020F0000B638BE0012229001343114365196160D2
:102100003800B5606B6000F03DF9200008303FE713
:102110004046D7E65A0A042A6ED9142A00D9C1E0EB
:1021200011005C325B31D20008235B429C46B2183E
:10213000944463469A6803239846944500D19AE0F4
:10214000434651689943494502D992689445F7D16D
:10215000D3689C4673686146A260E1608C60D4607D
:10216000D5E6C04628060020FF010000200600201A
:10217000680A00200F10000008100000142852D92F
:10218000542800D996E06E239846280B80446F307F
:10219000C10078E608239B46073BDC449B46DA44B3
:1021A00043465246134200D0C5E64CE00122E318F4
:1021B000596838000A435A60E368A268D3609A609D
:1021C00000F0E0F820000830E2E62B00E8080833D1
:1021D00024E6012360191D43656070613061C260AF
:1021E00082601A004B460A4342603800E15000F01A
:1021F000C9F820000830CBE69A091100393238318D
:10220000D20091E7B44260D0B468626803239A4375
:10221000531BAA4202D30F2B00DD6BE7380000F0FE
:10222000B1F80020B4E65B23984680445C30C100DE
:1022300029E608235B429C46E1444B469B680138F3
:102240004B4500D097E043460342F2D173688B437D
:1022500073604900994200D9B8E6002904D1B5E677
:10226000042294464900E2440B42F9D050465DE610
:1022700010330093C8E68910023B8B4071680B4312
:10228000736068E7009B38004B441B055B421B0DE5
:1022900019009B4600F078F8431C00D0F3E60023B9
:1022A0009B46F5E6542A2AD81A0B11006F326E317C
:1022B000D20039E7AA235B0098422AD8DD3B984632
:1022C000E80B80447830C100DDE553465B68009A36
:1022D0009C46534662445A60AFE6090500D0ACE61E
:1022E000009AB468424401310A436260F4E65B46F6
:1022F0004A461A60ACE64C46EEE641608EE7AA21FB
:1023000049008A4224D8DA0B110078327731D200A2
:102310000AE71A4B984224D87C239846A80C80449C
:102320007D30C100AFE5009A019B94464A46083BC8
:1023300063449B1A009300239B46A9E621003800C2
:10234000083100F0B7F85346B4685B686268C3E6CA
:102350000A498A420BD89A0C11007D327C31D20096
:10236000E2E6FE217E2389007F2098468BE5FE224F
:102370007E219200D8E673686BE7C04654050000E2
:102380007047C0467047C046002370B5064C050034
:1023900008002360FEF7F8FE431C00D070BD2368E0
:1023A000002BFBD02B60F9E7100D002010B5830740
:1023B00027D00378002B26D00300032102E01A78EF
:1023C000002A1CD001330B42F9D119680F4A104C76
:1023D0008A188A4322420FD1043319680B4A8A189B
:1023E0008A43224208D104331968084A8A188A436A
:1023F0002242F1D000E001331A78002AFBD1181AEA
:1024000010BD0300E1E70020FAE7C046FFFEFEFE34
:1024100080808080F8B50C000600FFF7B1FF204FE8
:10242000BB685D6803239D431E4B2C1B9C46644484
:10243000240B1D4B013C24039C4207DD002130008E
:10244000FFF7A2FFBB685B19984204D03000FFF78A
:1024500099FF0020F8BD61423000FFF795FF431C53
:102460000DD00122BB682D1B15435D600F4B300062
:102470001A68141B1C60FFF785FF0120EAE70021A2
:102480003000FFF781FFBA68831A0F2BDEDD0849A1
:102490000968401A0549086001210B435360D5E7DC
:1024A00028060020EF0F0000FF0F00006C0A00203C
:1024B00020060020F0B5D6464F4646460500C0B57A
:1024C0000C1E5CD0FFF75CFF210008394F68012427
:1024D0003B000322A343C81846689643B146664EA4
:1024E000B268824200D175E04A4642608218944642
:1024F0003C4229D10F68C91B8A68DB1990466246A5
:102500005768082294462740B444BA46E04556D05E
:10251000CA68944642466746D76062464746976017
:102520005246002A13D101224B44CF18BC4684687E
:10253000524F1A43BC4200D17AE0C068E060846028
:102540004A606246136005E057682742EBD01C439F
:102550004C6003604A4A934216D8DB08FF3A981051
:10256000FF3A82407068DB00024372609E19B368D4
:10257000CE608B60B160D9602800FFF703FF1CBC00
:1025800090469946A246F0BD5C0A042C3AD89C09B4
:10259000200039343830E4003419083CA26803279D
:1025A00094423ED05068B843984202D9926894420F
:1025B000F8D1D468CC608A60A160D160DCE7002FDC
:1025C00055D1C2684B4480681C43C26090604C6027
:1025D000CB50D1E74B443C4206D10A68891A88683F
:1025E0009B18CA68C260906001221A434A60254A5B
:1025F000B16012689A42BFD8234B28001968FFF7D0
:1026000009FFB9E7142C07D9542C19D81C0B20004A
:102610006F346E30E400BFE720005C345B30E400D0
:10262000BAE7012380108340706803437360C1E7F9
:10263000E160A1604A606246CC608C6013609BE7F9
:10264000AA204000844205D8DC0B20007834773083
:10265000E400A1E70D48844205D89C0C20007D349D
:102660007C30E40098E7FE247E20A40094E71C431D
:102670004C60036080E7C04628060020300600203A
:10268000FF01000024060020680A00205405000015
:10269000F8B5C0460000000001B40248844601BC01
:1026A000604700BF5501002001B40248844601BCC8
:1026B000604700BF7D01002001B40248844601BC90
:1026C000604700BF0D01002001B40248844601BCF0
:0826D000604700BFC1000020BB
:1026D800486172647761726520616C61726D202552
:1026E8006420616C726561647920636C61696D65F1
:1026F800640000000A2A2A2A2050414E4943202A11
:102708002A2A0A000A000000486172642061737373
:102718006572740052656C6561736500312E302EE8
:10272800310000007069636F000000006D61696E20
:10273800000000004665622031332032303231001B
:1027480006005250BBFF3CB62C2700100600525022
:0C275800D3F075421C2700100D0A000091
:10276400B4020010A80200109C02001048270010B8
:08277400900200105427001030
:10277C0010B502680024EFF3108172B61368002BB9
:10278C00FCD0BFF35F8F03797F2B0BD80368BFF3AB
:10279C005F8F1C6081F3108820BF0268EFF31081FB
:1027AC0072B6EBE7D0231B061B6803710368BFF3FB
:1027BC005F8F00221A6081F3108810BD030010B5E2
:1027CC000068EFF3108472B60268002AFCD0BFF3E5
:1027DC005F8F04229A56002A0BDB00290FD00020B1
:1027EC000A601B68BFF35F8F00221A6084F31088A5
:1027FC0010BDD0221206126801201A71F1E70020D8
:10280C00EFE7C0460268EFF3108172B61368002B35
:10281C00FCD0BFF35F8FFF23037140BF0368BFF38E
:10282C005F8F00221A6081F3108870477047C04692
:10283C00100000000000000000000100000000007B
:10284C00000000000000020000000000000000007A
:10285C000000030000000000000000000000FF006A
:10286C000000000000B5486801318E4600477046F4
:10287C0009380149884700BDB51700100000000059
:10288C00503300004C33000054330000523300002E
:10289C004D5300004D4300005334000043340000FE
:1028AC00F80100200000000000000000E4040020FB
:1028BC004C050020B40500200000000000000000C2
:1028CC0000000000000000000000000000000000FC
:1028DC0000000000000000000000000000000000EC
:1028EC0000000000000000000000000000000000DC
:1028FC0000000000000000000000000000000000CC
:10290C0000000000000000000000000000000000BB
:10291C0000000000000000000000000000000000AB
:10292C00000000000000000000000000000000009B
:10293C00000000000000000000000000000000008B
:10294C00000000000000000000000000000000007B
:10295C0001000000000000000E33CDAB34126DE618
:10296C00ECDE05000B000000000000000000000081
:10297C00000000000000000000000000000000004B
:10298C00000000000000000000000000000000003B
:10299C00000000000000000000000000000000002B
:1029AC00000000000000000000000000000000001B
:102CDC00FFFFFFFF000002000000000000000000EA
:102CEC002806002028060020300600203006002090
:102CFC003806002038060020400600204006002040
:102D0C0048060020480600205006002050060020EF
:102D1C00580600205806002060060020600600209F
:102D2C00680600206806002070060020700600204F
:102D3C0078060020780600208006002080060020FF
:102D4C0088060020880600209006002090060020AF
:102D5C009806002098060020A0060020A00600205F
:102D6C00A8060020A8060020B0060020B00600200F
:102D7C00B8060020B8060020C0060020C0060020BF
:102D8C00C8060020C8060020D0060020D00600206F
:102D9C00D8060020D8060020E0060020E00600201F
:102DAC00E8060020E8060020F0060020F0060020CF
:102DBC00F8060020F806002000070020000700207D
:102DCC00080700200807002010070020100700202B
:102DDC0018070020180700202007002020070020DB
:102DEC00280700202807002030070020300700208B
:102DFC00380700203807002040070020400700203B
:102E0C0048070020480700205007002050070020EA
:102E1C00580700205807002060070020600700209A
:102E2C00680700206807002070070020700700204A
:102E3C0078070020780700208007002080070020FA
:102E4C0088070020880700209007002090070020AA
:102E5C009807002098070020A0070020A00700205A
:102E6C00A8070020A8070020B0070020B00700200A
:102E7C00B8070020B8070020C0070020C0070020BA
:102E8C00C8070020C8070020D0070020D00700206A
:102E9C00D8070020D8070020E0070020E00700201A
:102EAC00E8070020E8070020F0070020F0070020CA
:102EBC00F8070020F8070020000800200008002078
:102ECC000808002008080020100800201008002026
:102EDC0018080020180800202008002020080020D6
:102EEC002808002028080020300800203008002086
:102EFC003808002038080020400800204008002036
:102F0C0048080020480800205008002050080020E5
:102F1C005808002058080020600800206008002095
:102F2C006808002068080020700800207008002045
:102F3C0078080020780800208008002080080020F5
:102F4C0088080020880800209008002090080020A5
:102F5C009808002098080020A0080020A008002055
:102F6C00A8080020A8080020B0080020B008002005
:102F7C00B8080020B8080020C0080020C0080020B5
:102F8C00C8080020C8080020D0080020D008002065
:102F9C00D8080020D8080020E0080020E008002015
:102FAC00E8080020E8080020F0080020F0080020C5
:102FBC00F8080020F8080020000900200009002073
:102FCC000809002008090020100900201009002021
:102FDC0018090020180900202009002020090020D1
:102FEC002809002028090020300900203009002081
:102FFC003809002038090020400900204009002031
:10300C0048090020480900205009002050090020E0
:10301C005809002058090020600900206009002090
:10302C006809002068090020700900207009002040
:10303C0078090020780900208009002080090020F0
:10304C0088090020880900209009002090090020A0
:10305C009809002098090020A0090020A009002050
:10306C00A8090020A8090020B0090020B009002000
:10307C00B8090020B8090020C0090020C0090020B0
:10308C00C8090020C8090020D0090020D009002060
:10309C00D8090020D8090020E0090020E009002010
:1030AC00E8090020E8090020F0090020F0090020C0
:1030BC00F8090020F8090020000A0020000A00206E
:1030CC00080A0020080A0020100A0020100A00201C
:1030DC00180A0020180A0020200A0020200A0020CC
:1030EC000000000000000000551B0010E918001043
:0C30FC00A9190010B51A001039030010CB
:04000005100001E9FD
:00000001FF
